:02000004080AE8
:1000000000000A08F4140A080000060006000501B2
:0800100004027C050000000061
:0400180084110A083D
:10001C0009480A4908B5884205D0094A824202D0EB
:10002C00121A01F065F80748074A0021121A01F06C
:10003C006AF8064808BD00BF0000002064140A08D6
:10004C006800002068000020F8010020F801002062
:10005C0070B500F091FB074B074C1E46E41AA40840
:10006C000025A54204D056F8253098470135F8E70D
:10007C0070BD00BF20140A0854140A0800F014B80C
:10008C0008B500F023F8BDE8084000F037BB00F0DD
:10009C00B3B900F0B9B90078B0FA80F040097047F4
:1000AC00012303707047000007B5B42300218DE8CD
:1000BC000A004FF408724FF41663034800F01BFA61
:1000CC0003B05DF804FB00BF6C00002008B54FF4D2
:1000DC007A7000F0C1FABDE808405A21014800F0DE
:1000EC00CBB900BF6C00002008B500F007F8BDE8E4
:1000FC000840014800F0EBB96C00002008B5024B39
:10010C001B681B68019308BDB001060808B5024BBB
:10011C001B685B68019308BDB001060808B5024B6B
:10012C001B68DB69019308BDB401060808B5024BD6
:10013C001B681B6A019308BDB401060808B5024B85
:10014C001B685B68019308BD9C01060808B5024B4F
:10015C001B685B69019308BD9C01060808B5024B3E
:10016C001B681B6B019308BDD001060808B5024B38
:10017C001B689B69019308BDC401060808B5024BB6
:10018C001B685B6A019308BDC401060808B5024BE5
:10019C001B689B6A019308BDC401060808B5024B95
:1001AC001B68DB6A019308BDC401060808B5024B45
:1001BC001B681B6B019308BDC401060808B5024BF4
:1001CC001B685B6B019308BDC401060808B5024BA4
:1001DC001B689B6B019308BDC401060808B5024B54
:1001EC001B681B6C019308BDC401060808B5024BC3
:1001FC001B681B6E019308BDAC01060808B5024BC9
:10020C001B685B6E019308BDAC01060808B5024B78
:10021C001B689B6E019308BDAC01060808B5024B28
:10022C001B68DB6E019308BDAC01060808B5024BD8
:10023C001B681B6F019308BDAC01060808B5024B87
:10024C001B685B6F019308BDAC01060808B5034B36
:10025C001B68D3F88030019308BD0000AC01060880
:10026C0008B5024B1B681B69019308BDA801060861
:10027C0008B5024B1B685B69019308BDA801060811
:10028C0008B5024B1B689B69019308BDA8010608C1
:10029C0008B5024B1B681B68019308BDD801060802
:1002AC0008B5024B1B681B69019308BDD8010608F1
:1002BC0008B5024B1B685B69019308BDD8010608A1
:1002CC0008B5024B1B689B69019308BDD801060851
:1002DC0008B5024B1B68DB69019308BDD801060801
:1002EC0008B5024B1B681B6A019308BDD8010608B0
:1002FC0008B5024B1B689B6C019308BDC001060836
:10030C0008B5024B1B685B68019308BDA401060885
:10031C0008B5024B1B685B69019308BDA401060874
:10032C0008B5034B1B68D3F89030019308BD00004F
:10033C00A401060808B5034B1B68D3F89C30019345
:10034C0008BD0000A401060808B5024B1B685B68D9
:10035C00019308BDC801060808B5024B1B689B68D1
:10036C00019308BDC801060808B5024B1B68DB6881
:10037C00019308BDC801060808B5024B1B681B6930
:10038C00019308BDC801060808B5024B1B685B69E0
:10039C00019308BDC801060808B5024B1B689B6990
:1003AC00019308BDC801060808B5024B1B68DB6940
:1003BC00019308BDC801060808B5024B1B681B6AEF
:1003CC00019308BDC801060808B5024B1B681B6BDE
:1003DC00019308BDC801060808B5024B1B685B6B8E
:1003EC00019308BDC801060808B5024B1B68DB6BFE
:1003FC00019308BDCC01060808B5024B1B681B68AD
:10040C00019308BDA001060808B5024B1B685B6888
:10041C00019308BDA0010608704710B504461021D1
:10042C0000F00DFD204610BD70B504460E46074B7E
:10043C000025036040F80C5FFFF790FE30462671F4
:10044C00FFF76CFEA560204670BD00BFA0110A0826
:10045C000079FFF76BBEB0F90020531C0BD043881A
:10046C0080888B4203D88842034628BF0B46194626
:10047C0090B2FFF705BF704737B504460846B4F98C
:10048C000610B4F90820814203DC9042A8BF104644
:10049C0000E00846A5886388009500F0D1F8E16873
:1004AC000144204689B203B0BDE83040FFF7D3BF0A
:1004BC004FF6FF73B42202814FF40872038042801E
:1004CC0000234FF41662C3808280C360704708B566
:1004DC00FFF7EEFF08BD10B50446B0F90000431C51
:1004EC0007D080B2FFF7C4FE2046FFF7E1FF0120E2
:1004FC0010BD002010BD2DE9F0410D46044602212F
:10050C00284690461F46FFF701FE022801D0002620
:10051C0019E0284600F010FC06460028F7D0B4F984
:10052C000030013302D02046FFF7D5FFBDF918305B
:10053C002580E380BDF91C30A4F80280A7802381BC
:10054C002846FFF78DFE3046BDE8F0814FF6FF726E
:10055C00034B0020187058809A80FFF7D1BE00BF63
:10056C007C000020F8B506460D468F180024BD42CD
:10057C000CD0336815F8011B9B683046984700284F
:10058C0001DB0444F3E7002C08BF04462046F8BD09
:10059C0070B505460C46084649B100F0E5FD2B68E0
:1005AC00024621462846BDE87040DB68184770BDFE
:1005BC0003689B681847012A98BF0A2230B50B467E
:1005CC008BB000218DF824100DF12304B3FBF2F550
:1005DC0005FB1233DBB2092B94BF30333733DBB25C
:1005EC00214604F801392B46002DEFD1FFF7D0FF3F
:1005FC000BB030BD10B422B90368C9B29B6810BCF3
:10060C001847D2B210BCFFF7D6BFFFF7F3BF0023D9
:10061C001A4619464068FFF7B7BE0000014A024B64
:10062C001A6070471E120A0884000020024B1A68D8
:10063C00024B1A60704700BF0000002088000020A9
:10064C008A4230B507D0039D441AED1A6C43521AF6
:10065C0094FBF2F4E01830BD0021FFF759BE10B541
:10066C008368044613B1032201469847204610BD07
:10067C0010B50446FFF7F3FF204610BD03480023D6
:10068C008360034A034900F0D5BB00BF8C000020F7
:10069C00680000207D060A0808B5144B33B100F041
:1006AC0059F903681B699847002816DC104B33B1C5
:1006BC0000F000FA03681B699847002810DC0D4B0A
:1006CC000BB1AFF300800C4B7BB100F071F90368F8
:1006DC001B699847002806DC08BDAFF30080E5E7EE
:1006EC00AFF30080EBE7AFF3008008BD0000000023
:1006FC0000000000000000000000000008B5FFF73B
:10070C00CBFFFFF723FD014B186008BD240100202F
:10071C000248034A0349121A00F0EABC00400240A6
:10072C000440024060140A0807B5002300931A46DF
:10073C006FF07701FFF7FEFD03B05DF804FB0000DE
:10074C0007B543880A2B08D0502B09D1094B1B68DD
:10075C003BB103B05DF804EB1847FFF7E5FF06E08B
:10076C00002300931A466FF07701FFF7E3FD03B007
:10077C005DF804FB9C00002038B5104C104D23682C
:10078C00AB42104B0CBF012200221A7002D0FFF7B3
:10079C00BFFF2560FFF7D2FC044600F0BDFC0A4BFE
:1007AC0013B12046AFF3008000210748FFF71CFE71
:1007BC00BDE8384000210548FFF7B2BD00400240BB
:1007CC001E1C279AA0000020000000004D070A08FC
:1007DC00704710B50446182100F031FB204610BDBF
:1007EC00F8B50F4600F10806051D002416F8011D8A
:1007FC000A223846FFF709FFAE42044407D0002C0A
:10080C00F4D02E213846FFF7D3FE0444EEE7204601
:10081C00F8BD000010B50446044B112240F8043B0F
:10082C00002100F070FC204610BD00BFC0120A0869
:10083C000346074A10B543F8042B01F1100251F896
:10084C00044B914243F8044BF9D10A781A7010BD4D
:10085C00C0120A08024A4160026004220275704705
:10086C00C0120A0810B59DF8084044EA032343EA75
:10087C00024242EA016104234160037510BD00008D
:10088C0037B5044D05609DF818500095FFF7EAFF49
:10089C0003B030BDC0120A0841747047704708B5E8
:1008AC000021007CFFF70CFD30EA200028BF4FF040
:1008BC00FF3008BD08B50121007CFFF701FD30EACF
:1008CC00200028BF4FF0FF3008BD08B5007CFFF7B3
:1008DC00EFFC20EAE07008BD08B5007CFFF7E0FCF7
:1008EC0020EAE07008BD007CFFF7FABC10B50446A6
:1008FC00142100F0A4FA204610BD38B50446007C43
:10090C000D46FFF7D5FC002801DC607C28B1294698
:10091C00207CFFF7DDFC20EAE07038BD10B5044602
:10092C00002363604FF47A73A360054B0846236081
:10093C000123217463741146FFF7AAFC204610BDF5
:10094C00D4120A0810B504461422002100F0DBFB77
:10095C00204610BD30B50E4D87B001A8FFF7F2FF51
:10096C00296811F0010410D12846FFF794FB60B1FF
:10097C0001AA21460748FFF7D1FF2846FFF790FB55
:10098C00054A0649034800F055FA024807B030BD45
:10099C00A4000020AC00002068000020A9080A0870
:1009AC0010B504461422002100F0ADFB204610BD0A
:1009BC0010B50E4C86B001A8FFF7F2FF2368DB07D9
:1009CC0010D42046FFF767FB60B101AA012108484B
:1009DC00FFF7A4FF2046FFF763FB064A06490448CD
:1009EC0000F028FA024806B010BD00BFA800002095
:1009FC00C000002068000020A9080A087047417454
:100A0C00704708B5007CFFF7E9FB20EAE07008BDF1
:100A1C0008B5007CFFF7BAFB20EAE07008BD08B50A
:100A2C00007CFFF7C3FB30EA200028BF4FF0FF30FB
:100A3C0008BD08B5007CFFF7B1FB30EA200028BFE9
:100A4C004FF0FF3008BD007CFFF7B8BB10B5044673
:100A5C00142100F0F4F9204610BD70B5457C044615
:100A6C000E4625B9007CFFF7B9FB002805DD3146A1
:100A7C00207CBDE87040FFF781BB284670BD0000AC
:100A8C0010B5044608461146002262604FF47A7293
:100A9C00A260054A20742260012262741A46FFF794
:100AAC0065FB204610BD00BF04130A08007CFFF74D
:100ABC008DBB0000F8B5194C25684DB98420FFF7A3
:100ACC00E6FA064618B18422294600F01CFB266083
:100ADC00134D2E684EB98420FFF7D9FA074618B18A
:100AEC008422314600F00FFB2F600E4F396811F055
:100AFC00010611D13846FFF7CEFA68B122683146AB
:100B0C002B680948FFF7BCFF3846FFF7C9FA074ABC
:100B1C000749054800F08EF90348F8BDF0000020A5
:100B2C00E8000020EC000020D40000206800002029
:100B3C00090A0A087047F8B5064615460C468F1880
:100B4C00BC4206D0336814F8011B9B6830469847AA
:100B5C00F6E72846F8BD0022007CFFF747BB0021D2
:100B6C00007CFFF74BBB0021007CFFF74FBB002143
:100B7C00007CFFF753BB0021007CFFF757BB10B57F
:100B8C000446142100F05BF9204610BD10B5044654
:100B9C0008464FF47A73A360044B00212074616003
:100BAC002360FFF753FB204610BD00BF34130A0827
:100BBC000021007CFFF742BB002211464068FFF782
:100BCC00DBBBF0B5164689B011220F460446002156
:100BDC0003A800F098FA304600F0C6FA00250095FC
:100BEC0081B27B6803AA3046FFF782FB20B129460D
:100BFC002046FFF72FFE03E003A92046FFF718FE5F
:100C0C00204609B0F0BD002211464068FFF7D4BB66
:100C1C00002211464068FFF7DFBB00224068FFF757
:100C2C00D3BB002281F001014068FFF7BDBB00235C
:100C3C001A4619464068FFF7AFBB002211464068C0
:100C4C00FFF78ABB002202214068FFF78DBB00230F
:100C5C001A464068FFF778BB024B04225A60024ADE
:100C6C001A607047F40000205C130A0800231A462F
:100C7C004068FFF769BB002202214068FFF774BB94
:100C8C00002211464068FFF767BB002211464068FE
:100C9C00FFF772BB00231A4619464068FFF774BB76
:100CAC0000231A4619464068FFF776BB002281F0F4
:100CBC0001014068FFF778BB00224068FFF784BB56
:100CCC00002211464068FFF787BB0022114640689E
:100CDC00FFF772BB70B516468EB0044608A8FFF736
:100CEC0099FD1122002103A800F00DFA304600F006
:100CFC003BFA00250A4B009581B25B6803AA30468B
:100D0C00FFF7F6FA20B129462046FFF7A3FD03E0D2
:100D1C0003A92046FFF78CFD20460EB070BD00BF26
:100D2C00F4000020024B034A1A6000225A607047FC
:100D3C00FC00002090130A0810B504460F48FFF77A
:100D4C0087FB28B1A4F10D03022B01D8002010BDA4
:100D5C0000F050F8FFF72CFF08B1012CF6D9FFF783
:100D6C00A9FEFFF7A3FE18B1A4F11203012BEDD9D4
:100D7C00172C8CBF0020012010BD00BF04010020E7
:100D8C0070B50C4C0C4E0D4D00212046FFF74CFB62
:100D9C0020460B4C3246294600F04CF801212046E7
:100DAC00FFF742FB324629462046BDE8704000F072
:100DBC0041B800BF040100206800002025040A0887
:100DCC001401002013B5084C00231A461946009351
:100DDC002046FFF755FD2046044A054902B0BDE800
:100DEC00104000F027B800BF280100206800002048
:100DFC00DD070A0838B50B4D296811F001040FD135
:100E0C002846FFF748F958B121460748FFF7BEFEC0
:100E1C002846FFF745F9054A0549034800F00AF84A
:100E2C00014838BD4001002044010020680000202A
:100E3C00410B0A080B460146184600F04BB9FFF768
:100E4C0028B90000184B1A68D1075CBF01221A6040
:100E5C00164B1A68D2075CBF01221A60144B1A6831
:100E6C00D0075CBF01221A60124B1A68D1075CBF15
:100E7C0001221A60104B1A68D2075CBF01221A605B
:100E8C000E4B1A68D0075CBF01221A600C4B1A6813
:100E9C00D1075CBF01221A600A4B1A68D2075CBFEB
:100EAC0001221A60704700BF7401002070010020FD
:100EBC006C0100206801002064010020600100200A
:100ECC005C01002058010020244B1A68D0075CBF3D
:100EDC0001221A60224B1A68D1075CBF01221A60EA
:100EEC00204B1A68D2075CBF01221A601E4B1A688D
:100EFC00D0075CBF01221A601C4B1A68D1075CBF7B
:100F0C0001221A601A4B1A68D2075CBF01221A60C0
:100F1C00184B1A68D0075CBF01221A60164B1A686E
:100F2C00D1075CBF01221A60144B1A68D2075CBF50
:100F3C0001221A60124B1A68D0075CBF01221A609A
:100F4C00104B1A68D1075CBF01221A600E4B1A684D
:100F5C00D2075CBF01221A60704700BFA4010020B9
:100F6C00A00100209C010020980100209401002089
:100F7C00900100208C0100208801002084010020B9
:100F8C00800100207C01002078010020244B1A688D
:100F9C00D0075CBF01221A60224B1A68D1075CBFD4
:100FAC0001221A60204B1A68D2075CBF01221A601A
:100FBC001E4B1A68D0075CBF01221A601C4B1A68C2
:100FCC00D1075CBF01221A601A4B1A68D2075CBFAA
:100FDC0001221A60184B1A68D0075CBF01221A60F4
:100FEC00164B1A68D1075CBF01221A60144B1A68A1
:100FFC00D2075CBF01221A60124B1A68D0075CBF83
:10100C0001221A60104B1A68D1075CBF01221A60CA
:10101C000E4B1A68D2075CBF01221A60704700BFE2
:10102C00D4010020D0010020CC010020C8010020F8
:10103C00C4010020C0010020BC010020B801002028
:10104C00B4010020B0010020AC010020A801002058
:10105C00184B1A68D1075CBF01221A60164B1A682C
:10106C00D2075CBF01221A60144B1A68D0075CBF10
:10107C0001221A60124B1A68D1075CBF01221A6058
:10108C00104B1A68D2075CBF01221A600E4B1A680B
:10109C00D0075CBF01221A600C4B1A68D1075CBFE9
:1010AC0001221A600A4B1A68D2075CBF01221A602F
:1010BC00704700BFF4010020F0010020EC0100207B
:1010CC00E8010020E4010020E0010020DC01002008
:1010DC00D801002010B5054C13462CB10A46014628
:1010EC000220AFF3008010BD204610BD00000000B0
:1010FC0010B5431E0A44914204D011F8014B03F879
:10110C00014FF8E710BD03460244934202D003F8A6
:10111C00011BFAE77047000038B5124B05461C68F6
:10112C00A36BD3B91820FFF767F943F20E33A06312
:10113C0003804AF6CD33438041F2342383804EF250
:10114C006D63C3804DF6EC630381052343810B2350
:10115C00838101220023C0E90423A36B00221D61BB
:10116C005A6138BD64000020034613F8012B002A95
:10117C00FBD1181A013870471D000A085D000A08D7
:10118C0089000A088D000A08000000000000000019
:10119C000000000025040A0827040A08626175642F
:1011AC000053657269616C005553425365726961F5
:1011BC006C31007479706500706172616D00636DE3
:1011CC006400696400686E64007374726D00666913
:1011DC006C74006C766C0061646448616E646C6560
:1011EC00720072656D6F766548616E646C65720035
:1011FC00656E756D48616E646C657273004A534F11
:10120C004E53747265616D4C6F6748616E646C65AA
:10121C00720061707000253031307520005D200047
:10122C002564002C200028293A2000205B00636FE5
:10123C006465203D200025690064657461696C73E8
:10124C00203D20000D0A0066006C6E00666E006387
:10125C006F64650064657461696C006E6F6E650027
:10126C00747261636500696E666F007761726E00FF
:10127C006572726F720070616E696300616C6C00F4
:10128C005A00252B3033643A253032750025592D00
:10129C00256D2D25645425483A254D3A2553257A3C
:1012AC000061736374696D6500000000000000004C
:1012BC0000000000ED070A08DD070A08DF070A082E
:1012CC000000000000000000A9080A08F9080A083C
:1012DC0007090A0871050A08E5080A08AB080A0894
:1012EC00C1080A08F3080A08D7080A08A5080A085A
:1012FC000000000000000000090A0A08590A0A0848
:10130C00670A0A0871050A081D0A0A083F0A0A0832
:10131C002B0A0A08530A0A080B0A0A080F0A0A08B9
:10132C000000000000000000410B0A088B0B0A08AB
:10133C00630B0A08430B0A086B0B0A08730B0A08A9
:10134C007B0B0A08830B0A08000000000000000059
:10135C005B0C0A08510C0A08470C0A08C50B0A0852
:10136C001B060A083B0C0A082F0C0A08270C0A0853
:10137C001D0C0A08130C0A08CF0B0A080000000009
:10138C0000000000790C0A08830C0A088D0C0A086E
:10139C00970C0A08A10C0A08AD0C0A08B90C0A082B
:1013AC00C50C0A08CD0C0A08D70C0A08E10C0A086F
:1013BC000000000000000000000000000000000021
:1013CC000000000000000000000000000000000011
:1013DC000000000000000000000000000000000001
:1013EC0000000000000000000000000000000000F1
:1013FC0000000000000000000000000000000000E1
:10140C0000000000000000000000000000000000D0
:10141C0043000000F5000A0859050A0829060A08C5
:10142C0039060A0889060A08650C0A08310D0A08EB
:10143C008D0D0A08D10D0A08510E0A08D50E0A089E
:10144C00990F0A085D100A08000000000000000057
:04145C00000000008C
:041460000000000088
:10146400AD120A0800000000BC130A08DC130A08C5
:10147400FC130A0800000000000000000000000047
:10148400000000001C140A08000000000000000016
:101494000000000000000000000000000000000048
:1014A4000000000000000000000000000000000038
:1014B4000000000000000000000000000000000028
:0814C4000000000004000020FC
:1014CC00FFFFFFFF00000102030405060708090ADD
:1014DC000B0C0D0E0F101112131415161718191AD8
:0814EC001B1C1D1E1F2028001F
:0414F40078563412E0
:04000005080A001CC9
:00000001FF
